:100000000C9462000C948A000C948A000C948A0070
:100010000C948A000C948A000C948A000C948A0038
:100020000C948A000C948A000C948A000C948A0028
:100030000C948A000C948A000C948A000C948A0018
:100040000C94DC030C948A000C944C040C9426044D
:100050000C948A000C948A000C948A000C948A00F8
:100060000C948A000C948A000000000024002700F1
:100070002A0000000000250028002B0000000008D6
:10008000000201000003040700000000000000005F
:1000900000000000230026002900040404040404D6
:1000A0000404020202020202030303030303010227
:1000B00004081020408001020408102001020408F6
:1000C00010207E0411241FBECFEFD8E0DEBFCDBFCD
:1000D00011E0A0E0B1E0EAE2F1E102C005900D928A
:1000E000A631B107D9F721E0A6E1B1E001C01D9228
:1000F000AF3CB207E1F710E0C2E6D0E004C02197C0
:10010000FE010E948808C136D107C9F70E94CB04BE
:100110000C9493080C940000CF92DF92EF92FF9220
:10012000CF93DF93B091C301882311F0AB2F01C0AF
:10013000A0E08091C40190E0880F991F80579F4FE5
:10014000C090C901D090CA01E090CB01F090CC01E1
:1001500020E030E0FC01C591D491E881EB23A901B6
:1001600060E070E0EA130CC02F5F3F4F4C155D0557
:100170006E057F0578F33FEF2FEF8FEF9FEF03C002
:10018000322F252FCB01632F722FDF91CF91FF905C
:10019000EF90DF90CF900895CF93DF9390E0FC0134
:1001A000E255FF4F2491FC01E656FF4F84918823CE
:1001B00061F190E0880F991FFC01E859FF4FC5914C
:1001C000D491FC01EE58FF4FA591B491611109C083
:1001D0009FB7F8948881209582238883EC912E2301
:1001E0000BC0623061F49FB7F8948881322F30954C
:1001F00083238883EC912E2B2C939FBF06C08FB74F
:10020000F894E8812E2B28838FBFDF91CF9108953A
:100210003FB7F8948091170190911801A0911901AE
:10022000B0911A0126B5A89B05C02F3F19F0019681
:10023000A11DB11D3FBFBA2FA92F982F8827820F6C
:10024000911DA11DB11DBC01CD0142E0660F771FBC
:10025000881F991F4A95D1F708958F929F92AF9268
:10026000BF92CF92DF92EF92FF926B017C010E94CE
:1002700008014B015C01C114D104E104F104F1F067
:100280000E940801DC01CB0188199909AA09BB0960
:10029000883E9340A105B10570F321E0C21AD10850
:1002A000E108F10888EE880E83E0981EA11CB11CBD
:1002B000C114D104E104F10419F7DDCFFF90EF90F0
:1002C000DF90CF90BF90AF909F908F900895CF9286
:1002D000DF92EF92FF920F931F93CF93DF93CDB7EF
:1002E000DEB7C054D1400FB6F894DEBF0FBECDBF0D
:1002F0002FB7F89480911B0190911C01A0911D01D2
:10030000B0911E012FBF4091C5015091C60160916F
:10031000C7017091C8018C019D01041B150B260BB0
:10032000370BB901A801403D57406105710518F42C
:100330008091CD010DC18093C5019093C601A0931A
:10034000C701B093C8011092C0011092BF01109272
:10035000BE011092BD011092BC0162E08091C1010A
:100360000E94CC0061E070E080E090E00E942D01EE
:1003700061E08091C1010E94CC008091C10190E0B8
:10038000FC01E458FF4F2491FC01E255FF4F3491EA
:10039000FC01E656FF4FE491EE23B9F1222339F137
:1003A000233091F038F42130A9F0223001F584B5E2
:1003B0008F7D12C0273091F02830A1F02430B9F49D
:1003C000809180008F7D03C0809180008F77809323
:1003D00080000DC084B58F7784BD09C08091B000C6
:1003E0008F7703C08091B0008F7D8093B000F0E0E4
:1003F000EE0FFF1FEE58FF4FA591B4919FB7F894F1
:100400008C91309538233C939FBF8091C2018551D8
:10041000823028F48BE291E10197F1F706C064E1A4
:1004200070E080E090E00E942D0162E08091C101C7
:100430000E94CC008091CE0190E08230910538F08E
:10044000880F991F880F991F05970197F1F7F89466
:1004500080E00E948C006F3F7F4F8F4F9F4F21F4B1
:100460001092CD01789441C081E00E948C006F3FD2
:100470007F4F8F4F9F4FA1F38E010F5F1F4F6E0174
:100480008FEBC81A8EEFD80A780180E00E948C00AA
:10049000F701608371838283938381E00E948C00E3
:1004A000F7016483758386839783F8E0EF0EF11C70
:1004B000EC14FD0451F7789420E030E0F801C0809E
:1004C000D180E280F3804481558166817781FFEF9E
:1004D000CF16DF06EF06FF0631F04F3F8FEF5807CC
:1004E0006807780721F41092CD0180E031C0F9014E
:1004F00083E0F595E7958A95E1F7E454FE4F808116
:10050000880FC416D506E606F70608F481608083D6
:100510002F5F3F4F085F1F4F2832310579F620913A
:10052000C00130E04091BC018091BD0190E0840F9A
:10053000911D4091BE01840F911D4091BF01840F18
:10054000911D99272817390771F681E08093CD0115
:10055000C05CDE4F0FB6F894DEBF0FBECDBFDF919B
:10056000CF911F910F91FF90EF90DF90CF90089562
:10057000CF92DF92EF92FF920F931F93CF93DF936F
:100580006C017A018B01C0E0D0E0CE15DF0581F06F
:10059000D8016D918D01D601ED91FC910190F08112
:1005A000E02DC6010995892B11F02196EECF7E0131
:1005B000C701DF91CF911F910F91FF90EF90DF90D6
:1005C000CF900895089580E090E00895FC01538D48
:1005D000448D252F30E0842F90E0821B930B54171D
:1005E00010F0CF96089501970895FC01918D828DAA
:1005F000981761F0828DDF01A80FB11D5D968C9177
:10060000928D9F5F9F73928F90E008958FEF9FEF81
:100610000895FC01918D828D981731F0828DE80F3D
:10062000F11D858D90E008958FEF9FEF0895FC01F7
:10063000918D228D892F90E0805C9F4F821B9109C4
:100640008F73992708958FE191E00E94170321E0AD
:10065000892B09F420E0822F0895FC01848DDF01AD
:10066000A80FB11DA35ABF4F2C91848D90E0019625
:100670008F739927848FA689B7892C93A089B18914
:100680008C91837080648C93938D848D981306C0B5
:100690000288F389E02D80818F7D80830895EF9219
:1006A000FF920F931F93CF93DF93EC0181E0888F2C
:1006B0009B8D8C8D981305C0E889F989808185FD13
:1006C00026C0F62E0B8D10E00F5F1F4F0F73112702
:1006D000E02E8C8DE8120CC00FB607FCFACFE8892B
:1006E000F989808185FFF5CFCE010E942D03F1CFDE
:1006F0008B8DFE01E80FF11DE35AFF4FF0829FB78B
:10070000F8940B8FEA89FB89808180620AC09FB7C9
:10071000F894EE89FF896083E889F9898081837084
:10072000806480839FBF81E090E0DF91CF911F9133
:100730000F91FF90EF900895CF93DF93EC01888D98
:100740008823C9F0EA89FB89808185FD05C0A889D5
:10075000B9898C9186FD0FC00FB607FCF5CF80815B
:1007600085FFF2CFA889B9898C9185FFEDCFCE01A5
:100770000E942D03E7CFDF91CF91089580E090E0B4
:10078000892B29F00E94230381110C940000089505
:10079000009769F0FC0101900020E9F73197AF0163
:1007A000481B590BBC018FE191E00C94B80280E02A
:1007B00090E008950E948E081F920F920FB60F923C
:1007C00011242F933F938F939F93AF93BF93809167
:1007D0001B0190911C01A0911D01B0911E0130914F
:1007E000160123E0230F2D3720F40196A11DB11D22
:1007F00005C026E8230F0296A11DB11D2093160106
:1008000080931B0190931C01A0931D01B0931E01C6
:100810008091170190911801A0911901B0911A01CE
:100820000196A11DB11D8093170190931801A0930B
:100830001901B0931A01BF91AF919F918F913F9190
:100840002F910F900FBE0F901F9018951F920F922F
:100850000FB60F9211242F933F934F935F936F9393
:100860007F938F939F93AF93BF93EF93FF938FE10A
:1008700091E00E942D03FF91EF91BF91AF919F9165
:100880008F917F916F915F914F913F912F910F9039
:100890000FBE0F901F9018951F920F920FB60F92D8
:1008A00011242F938F939F93EF93FF93E0912F0148
:1008B000F09130018081E0913501F091360182FDA7
:1008C00012C09081809138018F5F8F732091390120
:1008D000821751F0E0913801F0E0E15EFE4F958F14
:1008E0008093380101C08081FF91EF919F918F919A
:1008F0002F910F900FBE0F901F901895EFE1F1E030
:100900001382128288EE93E0A0E0B0E084839583A6
:10091000A683B78384E091E09183808385EC90E0A7
:100920009587848784EC90E09787868780EC90E0B9
:10093000918B808B81EC90E0938B828B82EC90E0AA
:10094000958B848B86EC90E0978B868B118E128E24
:10095000138E148EACEBB1E082E015968C93159754
:100960008BE016968C931697E0EBF0E0E4911796E7
:10097000EC931797ECE9F0E0E4911896EC93189754
:1009800040E85EE360E070E01D964D935D936D93EB
:100990007C9350970895CF93DF93CDB7DEB7A1979F
:1009A0000FB6F894DEBF0FBECDBF789484B58260D9
:1009B00084BD84B5816084BD85B5826085BD85B503
:1009C000816085BD80916E00816080936E00109281
:1009D00081008091810082608093810080918100FC
:1009E000816080938100809180008160809380008D
:1009F0008091B10084608093B1008091B0008160EB
:100A00008093B00080917A00846080937A00809116
:100A10007A00826080937A0080917A00816080936E
:100A20007A0080917A00806880937A001092C100E9
:100A3000E0912F01F091300182E08083E0912B0161
:100A4000F0912C011082E0912D01F0912E018FEC9C
:100A5000808310923701E0913301F091340186E0F8
:100A60008083E0913101F091320180818061808347
:100A7000E0913101F0913201808188608083E091C2
:100A80003101F0913201808180688083E0913101F1
:100A9000F091320180818F7D808362E08091C1017D
:100AA0000E94CC002FB7F89480911B0190911C01FB
:100AB000A0911D01B0911E012FBF805D9740A1093B
:100AC000B1098093C5019093C601A093C701B0936B
:100AD000C80187E38093CE019AE0892E912CA12C46
:100AE000B12C6AEF70E080E090E00E942D010E943E
:100AF00067018823C1F18091C2018B30A0F18D3054
:100B0000A8F08551823078F56091BC017091BD01EB
:100B100076276727762780E090E00E9442072DEC39
:100B20003CEC4CEC5DE30E94D00721C06091BD011C
:100B300070E080E090E00E9444072DEC3CEC4CEC2F
:100B40005DE30E94D0076B017C016091BC0170E005
:100B500080E090E00E9444079B01AC01C701B60110
:100B60000E94A00604C060E070E080EC9FE70E9455
:100B70000C072B013C010E946701882309F46DC01A
:100B80008091C2018C3009F446C018F48B30D1F04A
:100B900064C08551823008F060C01091BE01612FA1
:100BA0006F7770E0762F66278091BF01682B80E019
:100BB00090E00E9442072DEC3CEC4CEC5DE30E947F
:100BC000D00747C06091BE0170E080E090E00E94D5
:100BD00042076B017C011091BF0117FF0AC09B0106
:100BE000AC0160E070E080E89FEB0E949F066B0123
:100BF0007C01612F6F7070E080E090E00E944407FC
:100C00002DEC3CEC4CEC5DE30E94D007A701960173
:100C10000E94A00626C01091BE016091BF016F70B6
:100C200070E080E090E00E9444072DEC3CEC4CEC3E
:100C30005DE30E94D0076B017C01612F70E080E0D2
:100C400090E00E9442079B01AC01C701B6010E94DF
:100C5000A00617FF06C0905804C060E070E080EC6A
:100C60009FE70E940C076B017C018B01B201550CC0
:100C7000880B990B0E9444079B01AC010E943D0820
:100C800081110CC0B601DD0C880B990B0E94440742
:100C90009B01AC010E943D08882311F00FEF1FEF6C
:100CA0006801110FEE08FF08F7FE20C06DE28FE12A
:100CB00091E00E944F0322273327A9012C193D09F7
:100CC0004E095F0919A2CE0181967C01CA01B901C2
:100CD000A50194010E946608605DF70162937F019F
:100CE000211531054105510589F715C0A701960168
:100CF00019A2CE0181967C01CA01B901A501940116
:100D00000E946608605DF70162937F01211531053D
:100D10004105510589F7C7010E94C80342E050E030
:100D200062E171E08FE191E00E94B80264E670E058
:100D300080E090E00E942D010E94BE03D2CE505868
:100D4000BB27AA270E94B7060C9496070E94880723
:100D500038F00E948F0720F039F49F3F19F426F4F1
:100D60000C9485070EF4E095E7FB0C947F07E92FC0
:100D70000E94A70758F3BA176207730784079507FD
:100D800020F079F4A6F50C94C9070EF4E0950B2E2B
:100D9000BA2FA02D0B01B90190010C01CA01A001CD
:100DA0001124FF27591B99F0593F50F4503E68F128
:100DB0001A16F040A22F232F342F4427585FF3CF69
:100DC000469537952795A795F0405395C9F77EF43A
:100DD0001F16BA0B620B730B840BBAF09150A1F083
:100DE000FF0FBB1F661F771F881FC2F70EC0BA0F09
:100DF000621F731F841F48F4879577956795B79591
:100E0000F7959E3F08F0B0CF9395880F08F099278B
:100E1000EE0F9795879508950E9413076894B11176
:100E20000C94CA0708950E94AF0788F09F5798F066
:100E3000B92F9927B751B0F0E1F0660F771F881FDF
:100E4000991F1AF0BA95C9F714C0B13091F00E94F9
:100E5000C907B1E008950C94C907672F782F882738
:100E6000B85F39F0B93FCCF3869577956795B39520
:100E7000D9F73EF490958095709561957F4F8F4F8F
:100E80009F4F0895E89409C097FB3EF49095809594
:100E9000709561957F4F8F4F9F4F9923A9F0F92F40
:100EA00096E9BB279395F695879577956795B795BE
:100EB000F111F8CFFAF4BB0F11F460FF1BC06F5FA4
:100EC0007F4F8F4F9F4F16C0882311F096E911C0B6
:100ED000772321F09EE8872F762F05C0662371F0D7
:100EE00096E8862F70E060E02AF09A95660F771FEB
:100EF000881FDAF7880F9695879597F9089597F9DF
:100F00009F6780E870E060E008959FEF80EC0895AF
:100F100000240A94161617061806090608950024D8
:100F20000A9412161306140605060895092E039452
:100F3000000C11F4882352F0BB0F40F4BF2B11F4C6
:100F400060FF04C06F5F7F4F8F4F9F4F089557FD25
:100F50009058440F551F59F05F3F71F04795880F27
:100F600097FB991F61F09F3F79F0879508951216BE
:100F700013061406551FF2CF4695F1DF08C016166A
:100F800017061806991FF1CF86957105610508941B
:100F90000895E894BB2766277727CB0197F9089532
:100FA0000E94E3070C9496070E94880738F00E947D
:100FB0008F0720F0952311F00C947F070C94850780
:100FC00011240C94CA070E94A70770F3959FC1F3E0
:100FD000950F50E0551F629FF001729FBB27F00DE7
:100FE000B11D639FAA27F00DB11DAA1F649F66273C
:100FF000B00DA11D661F829F2227B00DA11D621F8B
:10100000739FB00DA11D621F839FA00D611D221F44
:10101000749F3327A00D611D231F849F600D211D28
:10102000822F762F6A2F11249F5750409AF0F1F0AB
:1010300088234AF0EE0FFF1FBB1F661F771F881F14
:1010400091505040A9F79E3F510580F00C947F07C6
:101050000C94CA075F3FE4F3983ED4F386957795E6
:101060006795B795F795E7959F5FC1F7FE2B880FBA
:10107000911D9695879597F908950E944208880BCF
:10108000990B0895990F0008550FAA0BE0E8FEEFA1
:1010900016161706E807F907C0F012161306E4073C
:1010A000F50798F0621B730B840B950B39F40A2635
:1010B00061F0232B242B252B21F408950A2609F413
:1010C000A140A6958FEF811D811D0895A1E21A2EE2
:1010D000AA1BBB1BFD010DC0AA1FBB1FEE1FFF1FDC
:1010E000A217B307E407F50720F0A21BB30BE40B2C
:1010F000F50B661F771F881F991F1A9469F7609573
:101100007095809590959B01AC01BD01CF0108952C
:10111000EE0FFF1F0590F491E02D099481E090E01F
:0A112000F8940C949308F894FFCFA4
:10112A00000000004F03B802E6029C031703F50211
:06113A0009030D0A00008C
:00000001FF
